{
  "address": "0x57bfFa72db682f7eb6C132DAE03FF36bBEB0c459",
  "abi": [
    {
      "inputs": [
        {
          "internalType": "address",
          "name": "_feeToSetter",
          "type": "address"
        }
      ],
      "stateMutability": "nonpayable",
      "type": "constructor"
    },
    {
      "anonymous": false,
      "inputs": [
        {
          "indexed": true,
          "internalType": "address",
          "name": "token0",
          "type": "address"
        },
        {
          "indexed": true,
          "internalType": "address",
          "name": "token1",
          "type": "address"
        },
        {
          "indexed": false,
          "internalType": "address",
          "name": "pair",
          "type": "address"
        },
        {
          "indexed": false,
          "internalType": "uint256",
          "name": "",
          "type": "uint256"
        }
      ],
      "name": "PairCreated",
      "type": "event"
    },
    {
      "inputs": [
        {
          "internalType": "uint256",
          "name": "",
          "type": "uint256"
        }
      ],
      "name": "allPairs",
      "outputs": [
        {
          "internalType": "address",
          "name": "",
          "type": "address"
        }
      ],
      "stateMutability": "view",
      "type": "function"
    },
    {
      "inputs": [],
      "name": "allPairsLength",
      "outputs": [
        {
          "internalType": "uint256",
          "name": "",
          "type": "uint256"
        }
      ],
      "stateMutability": "view",
      "type": "function"
    },
    {
      "inputs": [
        {
          "internalType": "address",
          "name": "tokenA",
          "type": "address"
        },
        {
          "internalType": "address",
          "name": "tokenB",
          "type": "address"
        }
      ],
      "name": "createPair",
      "outputs": [
        {
          "internalType": "address",
          "name": "pair",
          "type": "address"
        }
      ],
      "stateMutability": "nonpayable",
      "type": "function"
    },
    {
      "inputs": [],
      "name": "feeTo",
      "outputs": [
        {
          "internalType": "address",
          "name": "",
          "type": "address"
        }
      ],
      "stateMutability": "view",
      "type": "function"
    },
    {
      "inputs": [],
      "name": "feeToSetter",
      "outputs": [
        {
          "internalType": "address",
          "name": "",
          "type": "address"
        }
      ],
      "stateMutability": "view",
      "type": "function"
    },
    {
      "inputs": [
        {
          "internalType": "address",
          "name": "",
          "type": "address"
        },
        {
          "internalType": "address",
          "name": "",
          "type": "address"
        }
      ],
      "name": "getPair",
      "outputs": [
        {
          "internalType": "address",
          "name": "",
          "type": "address"
        }
      ],
      "stateMutability": "view",
      "type": "function"
    },
    {
      "inputs": [],
      "name": "migrator",
      "outputs": [
        {
          "internalType": "address",
          "name": "",
          "type": "address"
        }
      ],
      "stateMutability": "view",
      "type": "function"
    },
    {
      "inputs": [],
      "name": "pairCodeHash",
      "outputs": [
        {
          "internalType": "bytes32",
          "name": "",
          "type": "bytes32"
        }
      ],
      "stateMutability": "pure",
      "type": "function"
    },
    {
      "inputs": [
        {
          "internalType": "address",
          "name": "_feeTo",
          "type": "address"
        }
      ],
      "name": "setFeeTo",
      "outputs": [],
      "stateMutability": "nonpayable",
      "type": "function"
    },
    {
      "inputs": [
        {
          "internalType": "address",
          "name": "_feeToSetter",
          "type": "address"
        }
      ],
      "name": "setFeeToSetter",
      "outputs": [],
      "stateMutability": "nonpayable",
      "type": "function"
    },
    {
      "inputs": [
        {
          "internalType": "address",
          "name": "_migrator",
          "type": "address"
        }
      ],
      "name": "setMigrator",
      "outputs": [],
      "stateMutability": "nonpayable",
      "type": "function"
    },
    {
      "inputs": [
        {
          "internalType": "address",
          "name": "_yieldDelegate",
          "type": "address"
        }
      ],
      "name": "setYieldDelegate",
      "outputs": [],
      "stateMutability": "nonpayable",
      "type": "function"
    },
    {
      "inputs": [],
      "name": "yieldDelegate",
      "outputs": [
        {
          "internalType": "address",
          "name": "",
          "type": "address"
        }
      ],
      "stateMutability": "view",
      "type": "function"
    }
  ],
  "transactionHash": "0xb9a5cafbc4c4a97c060bb9326cb391b0a4a5973acd2be4ddb6424ac42793878f",
  "args": [
    "0x9c51aD79e99086c7Af3983E8626CA22617Bb7F46"
  ],
  "numDeployments": 1,
  "solcInputHash": "4a37a647a98e89979036d723999e22a8",
  "bytecode": "0x608060405234801561001057600080fd5b50604051612f3a380380612f3a8339818101604052602081101561003357600080fd5b5051600280546001600160a01b0319166001600160a01b03909216919091179055612ed7806100636000396000f3fe608060405234801561001057600080fd5b50600436106100cf5760003560e01c80637cd07e471161008c578063bfc5ebe111610066578063bfc5ebe1146101bb578063c9c65396146101c3578063e6a43905146101f1578063f46901ed1461021f576100cf565b80637cd07e47146101855780639aab92481461018d578063a2e74af614610195576100cf565b8063017e7e58146100d4578063094b7415146100f85780631e3dd18b1461010057806323cf31181461011d5780634da4e44f14610145578063574f2ba31461016b575b600080fd5b6100dc610245565b604080516001600160a01b039092168252519081900360200190f35b6100dc610254565b6100dc6004803603602081101561011657600080fd5b5035610263565b6101436004803603602081101561013357600080fd5b50356001600160a01b031661028a565b005b6101436004803603602081101561015b57600080fd5b50356001600160a01b0316610302565b61017361037a565b60408051918252519081900360200190f35b6100dc610380565b61017361038f565b610143600480360360208110156101ab57600080fd5b50356001600160a01b03166103c1565b6100dc610439565b6100dc600480360360408110156101d957600080fd5b506001600160a01b0381358116916020013516610448565b6100dc6004803603604081101561020757600080fd5b506001600160a01b0381358116916020013516610773565b6101436004803603602081101561023557600080fd5b50356001600160a01b0316610799565b6001546001600160a01b031681565b6002546001600160a01b031681565b6005818154811061027057fe5b6000918252602090912001546001600160a01b0316905081565b6002546001600160a01b031633146102e0576040805162461bcd60e51b81526020600482015260146024820152732ab734b9bbb0b82b191d102327a92124a22222a760611b604482015290519081900360640190fd5b600380546001600160a01b0319166001600160a01b0392909216919091179055565b6002546001600160a01b03163314610358576040805162461bcd60e51b81526020600482015260146024820152732ab734b9bbb0b82b191d102327a92124a22222a760611b604482015290519081900360640190fd5b600080546001600160a01b0319166001600160a01b0392909216919091179055565b60055490565b6003546001600160a01b031681565b6000604051806020016103a190610811565b6020820181038252601f19601f8201166040525080519060200120905090565b6002546001600160a01b03163314610417576040805162461bcd60e51b81526020600482015260146024820152732ab734b9bbb0b82b191d102327a92124a22222a760611b604482015290519081900360640190fd5b600280546001600160a01b0319166001600160a01b0392909216919091179055565b6000546001600160a01b031681565b6000816001600160a01b0316836001600160a01b031614156104b1576040805162461bcd60e51b815260206004820152601e60248201527f556e697377617056323a204944454e544943414c5f4144445245535345530000604482015290519081900360640190fd5b600080836001600160a01b0316856001600160a01b0316106104d45783856104d7565b84845b90925090506001600160a01b038216610537576040805162461bcd60e51b815260206004820152601760248201527f556e697377617056323a205a45524f5f41444452455353000000000000000000604482015290519081900360640190fd5b6001600160a01b038281166000908152600460209081526040808320858516845290915290205416156105aa576040805162461bcd60e51b8152602060048201526016602482015275556e697377617056323a20504149525f45584953545360501b604482015290519081900360640190fd5b6060604051806020016105bc90610811565b6020820181038252601f19601f8201166040525090506000838360405160200180836001600160a01b031660601b8152601401826001600160a01b031660601b815260140192505050604051602081830303815290604052805190602001209050808251602084016000f59450846001600160a01b031663485cc95585856040518363ffffffff1660e01b815260040180836001600160a01b03168152602001826001600160a01b0316815260200192505050600060405180830381600087803b15801561068957600080fd5b505af115801561069d573d6000803e3d6000fd5b505050506001600160a01b0384811660008181526004602081815260408084208987168086529083528185208054978d166001600160a01b031998891681179091559383528185208686528352818520805488168517905560058054600181018255958190527f036b6384b5eca791c62761152d0c79bb0604c104a5fb6f4eb0703f3154bb3db090950180549097168417909655925483519283529082015281517f0d3648bd0f6ba80134a33ba9275ac585d9d315f0ad8355cddefde31afa28d0e9929181900390910190a35050505092915050565b60046020908152600092835260408084209091529082529020546001600160a01b031681565b6002546001600160a01b031633146107ef576040805162461bcd60e51b81526020600482015260146024820152732ab734b9bbb0b82b191d102327a92124a22222a760611b604482015290519081900360640190fd5b600180546001600160a01b0319166001600160a01b0392909216919091179055565b6126838061081f8339019056fe60806040526001600c5534801561001557600080fd5b50604080518082018252601281527129bab9b434a9bbb0b8102628102a37b5b2b760711b6020918201528151808301835260018152603160f81b9082015281517f8b73c3c69bb8fe3d512ecc4cf759cc79239f7b179b0ffacaa9a75d522b39400f818301527fefbffe65652a145845c9bc8d0532945be6b9830fe1e9966c887bd298e551ac83818401527fc89efdaa54c0f20c7adf612882df0950f5a951637e0307cdcb4c672f298b8bc660608201524660808201523060a0808301919091528351808303909101815260c09091019092528151910120600355600580546001600160a01b03191633179055612573806101106000396000f3fe608060405234801561001057600080fd5b50600436106101c45760003560e01c80636a627842116100f9578063ba9a7a5611610097578063d21220a711610071578063d21220a714610575578063d505accf1461057d578063dd62ed3e146105ce578063fff6cae9146105fc576101c4565b8063ba9a7a561461053f578063bc25cf7714610547578063c45a01551461056d576101c4565b80637ecebe00116100d35780637ecebe00146104a657806389afcb44146104cc57806395d89b411461050b578063a9059cbb14610513576101c4565b80636a6278421461045257806370a08231146104785780637464fc3d1461049e576101c4565b806330adf81f116101665780633c1b881c116101405780633c1b881c146103ee578063485cc955146104145780635909c0d5146104425780635a3d54931461044a576101c4565b806330adf81f146103c0578063313ce567146103c85780633644e515146103e6576101c4565b8063095ea7b3116101a2578063095ea7b31461030c5780630dfe16811461034c57806318160ddd1461037057806323b872dd1461038a576101c4565b8063022c0d9f146101c957806306fdde03146102575780630902f1ac146102d4575b600080fd5b610255600480360360808110156101df57600080fd5b8135916020810135916001600160a01b03604083013516919081019060808101606082013564010000000081111561021657600080fd5b82018360208201111561022857600080fd5b8035906020019184600183028401116401000000008311171561024a57600080fd5b509092509050610604565b005b61025f610b0c565b6040805160208082528351818301528351919283929083019185019080838360005b83811015610299578181015183820152602001610281565b50505050905090810190601f1680156102c65780820380516001836020036101000a031916815260200191505b509250505060405180910390f35b6102dc610b3a565b604080516001600160701b03948516815292909316602083015263ffffffff168183015290519081900360600190f35b6103386004803603604081101561032257600080fd5b506001600160a01b038135169060200135610b64565b604080519115158252519081900360200190f35b610354610b7b565b604080516001600160a01b039092168252519081900360200190f35b610378610b8a565b60408051918252519081900360200190f35b610338600480360360608110156103a057600080fd5b506001600160a01b03813581169160208101359091169060400135610b90565b610378610c24565b6103d0610c48565b6040805160ff9092168252519081900360200190f35b610378610c4d565b6102556004803603602081101561040457600080fd5b50356001600160a01b0316610c53565b6102556004803603604081101561042a57600080fd5b506001600160a01b0381358116916020013516610d44565b610378610e99565b610378610e9f565b6103786004803603602081101561046857600080fd5b50356001600160a01b0316610ea5565b6103786004803603602081101561048e57600080fd5b50356001600160a01b0316611321565b610378611333565b610378600480360360208110156104bc57600080fd5b50356001600160a01b0316611339565b6104f2600480360360208110156104e257600080fd5b50356001600160a01b031661134b565b6040805192835260208301919091528051918290030190f35b61025f6116df565b6103386004803603604081101561052957600080fd5b506001600160a01b0381351690602001356116fe565b61037861170b565b6102556004803603602081101561055d57600080fd5b50356001600160a01b0316611711565b610354611883565b610354611892565b610255600480360360e081101561059357600080fd5b506001600160a01b03813581169160208101359091169060408101359060608101359060ff6080820135169060a08101359060c001356118a1565b610378600480360360408110156105e457600080fd5b506001600160a01b0381358116916020013516611aa3565b610255611ac0565b600c5460011461064f576040805162461bcd60e51b8152602060048201526011602482015270155b9a5cddd85c158c8e881313d0d2d151607a1b604482015290519081900360640190fd5b6000600c55841515806106625750600084115b61069d5760405162461bcd60e51b81526004018080602001828103825260258152602001806124846025913960400191505060405180910390fd5b6000806106a8610b3a565b5091509150816001600160701b0316871080156106cd5750806001600160701b031686105b6107085760405162461bcd60e51b81526004018080602001828103825260218152602001806124cd6021913960400191505060405180910390fd5b60065460075460009182916001600160a01b039182169190811690891682148015906107465750806001600160a01b0316896001600160a01b031614155b61078f576040805162461bcd60e51b8152602060048201526015602482015274556e697377617056323a20494e56414c49445f544f60581b604482015290519081900360640190fd5b8a156107a0576107a0828a8d611c22565b89156107b1576107b1818a8c611c22565b861561086357886001600160a01b03166310d1e85c338d8d8c8c6040518663ffffffff1660e01b815260040180866001600160a01b03168152602001858152602001848152602001806020018281038252848482818152602001925080828437600081840152601f19601f8201169050808301925050509650505050505050600060405180830381600087803b15801561084a57600080fd5b505af115801561085e573d6000803e3d6000fd5b505050505b604080516370a0823160e01b815230600482015290516001600160a01b038416916370a08231916024808301926020929190829003018186803b1580156108a957600080fd5b505afa1580156108bd573d6000803e3d6000fd5b505050506040513d60208110156108d357600080fd5b5051604080516370a0823160e01b815230600482015290519195506001600160a01b038316916370a0823191602480820192602092909190829003018186803b15801561091f57600080fd5b505afa158015610933573d6000803e3d6000fd5b505050506040513d602081101561094957600080fd5b5051925060009150506001600160701b0385168a9003831161096c57600061097b565b89856001600160701b03160383035b9050600089856001600160701b03160383116109985760006109a7565b89856001600160701b03160383035b905060008211806109b85750600081115b6109f35760405162461bcd60e51b81526004018080602001828103825260248152602001806124a96024913960400191505060405180910390fd5b6000610a15610a03846003611db5565b610a0f876103e8611db5565b90611e18565b90506000610a27610a03846003611db5565b9050610a4c620f4240610a466001600160701b038b8116908b16611db5565b90611db5565b610a568383611db5565b1015610a98576040805162461bcd60e51b815260206004820152600c60248201526b556e697377617056323a204b60a01b604482015290519081900360640190fd5b5050610aa684848888611e68565b60408051838152602081018390528082018d9052606081018c905290516001600160a01b038b169133917fd78ad95fa46c994b6551d0da85fc275fe613ce37657fb8d5e3d130840159d8229181900360800190a350506001600c55505050505050505050565b6040518060400160405280601281526020017129bab9b434a9bbb0b8102628102a37b5b2b760711b81525081565b6008546001600160701b0380821692600160701b830490911691600160e01b900463ffffffff1690565b6000610b71338484612027565b5060015b92915050565b6006546001600160a01b031681565b60005481565b6001600160a01b038316600090815260026020908152604080832033845290915281205460001914610c0f576001600160a01b0384166000908152600260209081526040808320338452909152902054610bea9083611e18565b6001600160a01b03851660009081526002602090815260408083203384529091529020555b610c1a848484612089565b5060019392505050565b7f6e71edae12b1b97f4d1f60370fef10105fa2faae0126114a169c64845d6126c981565b601281565b60035481565b600560009054906101000a90046001600160a01b03166001600160a01b031663094b74156040518163ffffffff1660e01b815260040160206040518083038186803b158015610ca157600080fd5b505afa158015610cb5573d6000803e3d6000fd5b505050506040513d6020811015610ccb57600080fd5b50516001600160a01b03163314610ce157600080fd5b60408051630f06e20760e21b81526001600160a01b03831660048201529051606591633c1b881c91602480830192600092919082900301818387803b158015610d2957600080fd5b505af1158015610d3d573d6000803e3d6000fd5b5050505050565b6005546001600160a01b03163314610d9a576040805162461bcd60e51b81526020600482015260146024820152732ab734b9bbb0b82b191d102327a92124a22222a760611b604482015290519081900360640190fd5b600680546001600160a01b038085166001600160a01b0319928316179092556007805484841692169190911790556005546040805163bfc5ebe160e01b81529051606593633c1b881c93169163bfc5ebe1916004808301926020929190829003018186803b158015610e0b57600080fd5b505afa158015610e1f573d6000803e3d6000fd5b505050506040513d6020811015610e3557600080fd5b5051604080516001600160e01b031960e085901b1681526001600160a01b03909216600483015251602480830192600092919082900301818387803b158015610e7d57600080fd5b505af1158015610e91573d6000803e3d6000fd5b505050505050565b60095481565b600a5481565b6000600c54600114610ef2576040805162461bcd60e51b8152602060048201526011602482015270155b9a5cddd85c158c8e881313d0d2d151607a1b604482015290519081900360640190fd5b6000600c81905580610f02610b3a565b50600654604080516370a0823160e01b815230600482015290519395509193506000926001600160a01b03909116916370a08231916024808301926020929190829003018186803b158015610f5657600080fd5b505afa158015610f6a573d6000803e3d6000fd5b505050506040513d6020811015610f8057600080fd5b5051600754604080516370a0823160e01b815230600482015290519293506000926001600160a01b03909216916370a0823191602480820192602092909190829003018186803b158015610fd357600080fd5b505afa158015610fe7573d6000803e3d6000fd5b505050506040513d6020811015610ffd57600080fd5b505190506000611016836001600160701b038716611e18565b9050600061102d836001600160701b038716611e18565b9050600061103b8787612137565b600054909150806112125760055460408051637cd07e4760e01b815290516000926001600160a01b031691637cd07e47916004808301926020929190829003018186803b15801561108b57600080fd5b505afa15801561109f573d6000803e3d6000fd5b505050506040513d60208110156110b557600080fd5b50519050336001600160a01b038216141561119057806001600160a01b03166340dc0e376040518163ffffffff1660e01b815260040160206040518083038186803b15801561110357600080fd5b505afa158015611117573d6000803e3d6000fd5b505050506040513d602081101561112d57600080fd5b50519950891580159061114257506000198a14155b61118b576040805162461bcd60e51b81526020600482015260156024820152744261642064657369726564206c697175696469747960581b604482015290519081900360640190fd5b61120c565b6001600160a01b038116156111e5576040805162461bcd60e51b815260206004820152601660248201527526bab9ba103737ba103430bb329036b4b3b930ba37b960511b604482015290519081900360640190fd5b6111fd6103e8610a0f6111f88888611db5565b612277565b995061120c60006103e86122c9565b50611255565b6112526001600160701b0389166112298684611db5565b8161123057fe5b046001600160701b0389166112458685611db5565b8161124c57fe5b04612353565b98505b600089116112945760405162461bcd60e51b81526004018080602001828103825260288152602001806125166028913960400191505060405180910390fd5b61129e8a8a6122c9565b6112aa86868a8a611e68565b81156112d4576008546112d0906001600160701b0380821691600160701b900416611db5565b600b555b6040805185815260208101859052815133927f4c209b5fc8ad50758f13e2e1088ba56a560dff690a1c6fef26394f4c03821c4f928290030190a250506001600c5550949695505050505050565b60016020526000908152604090205481565b600b5481565b60046020526000908152604090205481565b600080600c54600114611399576040805162461bcd60e51b8152602060048201526011602482015270155b9a5cddd85c158c8e881313d0d2d151607a1b604482015290519081900360640190fd5b6000600c819055806113a9610b3a565b50600654600754604080516370a0823160e01b815230600482015290519496509294506001600160a01b039182169391169160009184916370a08231916024808301926020929190829003018186803b15801561140557600080fd5b505afa158015611419573d6000803e3d6000fd5b505050506040513d602081101561142f57600080fd5b5051604080516370a0823160e01b815230600482015290519192506000916001600160a01b038516916370a08231916024808301926020929190829003018186803b15801561147d57600080fd5b505afa158015611491573d6000803e3d6000fd5b505050506040513d60208110156114a757600080fd5b5051306000908152600160205260408120549192506114c68888612137565b600054909150806114d78487611db5565b816114de57fe5b049a50806114ec8486611db5565b816114f357fe5b04995060008b118015611506575060008a115b6115415760405162461bcd60e51b81526004018080602001828103825260288152602001806124ee6028913960400191505060405180910390fd5b61154b308461236b565b611556878d8d611c22565b611561868d8c611c22565b604080516370a0823160e01b815230600482015290516001600160a01b038916916370a08231916024808301926020929190829003018186803b1580156115a757600080fd5b505afa1580156115bb573d6000803e3d6000fd5b505050506040513d60208110156115d157600080fd5b5051604080516370a0823160e01b815230600482015290519196506001600160a01b038816916370a0823191602480820192602092909190829003018186803b15801561161d57600080fd5b505afa158015611631573d6000803e3d6000fd5b505050506040513d602081101561164757600080fd5b5051935061165785858b8b611e68565b81156116815760085461167d906001600160701b0380821691600160701b900416611db5565b600b555b604080518c8152602081018c905281516001600160a01b038f169233927fdccd412f0b1252819cb1fd330b93224ca42612892bb3f4f789976e6d81936496929081900390910190a35050505050505050506001600c81905550915091565b604051806040016040528060038152602001620534c560ec1b81525081565b6000610b71338484612089565b6103e881565b600c5460011461175c576040805162461bcd60e51b8152602060048201526011602482015270155b9a5cddd85c158c8e881313d0d2d151607a1b604482015290519081900360640190fd5b6000600c55600654600754600854604080516370a0823160e01b815230600482015290516001600160a01b0394851694909316926118059285928792611800926001600160701b03169185916370a0823191602480820192602092909190829003018186803b1580156117ce57600080fd5b505afa1580156117e2573d6000803e3d6000fd5b505050506040513d60208110156117f857600080fd5b505190611e18565b611c22565b61187981846118006008600e9054906101000a90046001600160701b03166001600160701b0316856001600160a01b03166370a08231306040518263ffffffff1660e01b815260040180826001600160a01b0316815260200191505060206040518083038186803b1580156117ce57600080fd5b50506001600c5550565b6005546001600160a01b031681565b6007546001600160a01b031681565b428410156118eb576040805162461bcd60e51b8152602060048201526012602482015271155b9a5cddd85c158c8e881156141254915160721b604482015290519081900360640190fd5b6003546001600160a01b0380891660008181526004602090815260408083208054600180820190925582517f6e71edae12b1b97f4d1f60370fef10105fa2faae0126114a169c64845d6126c98186015280840196909652958d166060860152608085018c905260a085019590955260c08085018b90528151808603909101815260e08501825280519083012061190160f01b6101008601526101028501969096526101228085019690965280518085039096018652610142840180825286519683019690962095839052610162840180825286905260ff89166101828501526101a284018890526101c28401879052519193926101e280820193601f1981019281900390910190855afa158015611a06573d6000803e3d6000fd5b5050604051601f1901519150506001600160a01b03811615801590611a3c5750886001600160a01b0316816001600160a01b0316145b611a8d576040805162461bcd60e51b815260206004820152601c60248201527f556e697377617056323a20494e56414c49445f5349474e415455524500000000604482015290519081900360640190fd5b611a98898989612027565b505050505050505050565b600260209081526000928352604080842090915290825290205481565b600c54600114611b0b576040805162461bcd60e51b8152602060048201526011602482015270155b9a5cddd85c158c8e881313d0d2d151607a1b604482015290519081900360640190fd5b6000600c55600654604080516370a0823160e01b81523060048201529051611c1b926001600160a01b0316916370a08231916024808301926020929190829003018186803b158015611b5c57600080fd5b505afa158015611b70573d6000803e3d6000fd5b505050506040513d6020811015611b8657600080fd5b5051600754604080516370a0823160e01b815230600482015290516001600160a01b03909216916370a0823191602480820192602092909190829003018186803b158015611bd357600080fd5b505afa158015611be7573d6000803e3d6000fd5b505050506040513d6020811015611bfd57600080fd5b50516008546001600160701b0380821691600160701b900416611e68565b6001600c55565b604080518082018252601981527f7472616e7366657228616464726573732c75696e74323536290000000000000060209182015281516001600160a01b0385811660248301526044808301869052845180840390910181526064909201845291810180516001600160e01b031663a9059cbb60e01b1781529251815160009460609489169392918291908083835b60208310611ccf5780518252601f199092019160209182019101611cb0565b6001836020036101000a0380198251168184511680821785525050505050509050019150506000604051808303816000865af19150503d8060008114611d31576040519150601f19603f3d011682016040523d82523d6000602084013e611d36565b606091505b5091509150818015611d64575080511580611d645750808060200190516020811015611d6157600080fd5b50515b610d3d576040805162461bcd60e51b815260206004820152601a60248201527f556e697377617056323a205452414e534645525f4641494c4544000000000000604482015290519081900360640190fd5b6000811580611dd057505080820282828281611dcd57fe5b04145b610b75576040805162461bcd60e51b815260206004820152601460248201527364732d6d6174682d6d756c2d6f766572666c6f7760601b604482015290519081900360640190fd5b80820382811115610b75576040805162461bcd60e51b815260206004820152601560248201527464732d6d6174682d7375622d756e646572666c6f7760581b604482015290519081900360640190fd5b6001600160701b038411801590611e8657506001600160701b038311155b611ecd576040805162461bcd60e51b8152602060048201526013602482015272556e697377617056323a204f564552464c4f5760681b604482015290519081900360640190fd5b60085463ffffffff42811691600160e01b90048116820390811615801590611efd57506001600160701b03841615155b8015611f1157506001600160701b03831615155b15611f7c578063ffffffff16611f3985611f2a866123fd565b6001600160e01b03169061240f565b600980546001600160e01b03929092169290920201905563ffffffff8116611f6484611f2a876123fd565b600a80546001600160e01b0392909216929092020190555b600880546dffffffffffffffffffffffffffff19166001600160701b03888116919091176dffffffffffffffffffffffffffff60701b1916600160701b8883168102919091176001600160e01b0316600160e01b63ffffffff871602179283905560408051848416815291909304909116602082015281517f1c411e9a96e071241c2f21f7726b17ae89e3cab4c78be50e062b03a9fffbbad1929181900390910190a1505050505050565b6001600160a01b03808416600081815260026020908152604080832094871680845294825291829020859055815185815291517f8c5be1e5ebec7d5bd14f71427d1e84f3dd0314c0f7b2291e5b200ac8c7c3b9259281900390910190a3505050565b6001600160a01b0383166000908152600160205260409020546120ac9082611e18565b6001600160a01b0380851660009081526001602052604080822093909355908416815220546120db9082612434565b6001600160a01b0380841660008181526001602090815260409182902094909455805185815290519193928716927fddf252ad1be2c89b69c2b068fc378daa952ba7f163c4a11628f55a4df523b3ef92918290030190a3505050565b600080600560009054906101000a90046001600160a01b03166001600160a01b031663017e7e586040518163ffffffff1660e01b815260040160206040518083038186803b15801561218857600080fd5b505afa15801561219c573d6000803e3d6000fd5b505050506040513d60208110156121b257600080fd5b5051600b546001600160a01b03821615801594509192509061226357801561225e5760006121ef6111f86001600160701b03888116908816611db5565b905060006121fc83612277565b90508082111561225b57600061221e6122158484611e18565b60005490611db5565b9050600061223783612231866005611db5565b90612434565b9050600081838161224457fe5b04905080156122575761225787826122c9565b5050505b50505b61226f565b801561226f576000600b555b505092915050565b600060038211156122ba575080600160028204015b818110156122b4578091506002818285816122a357fe5b0401816122ac57fe5b04905061228c565b506122c4565b81156122c4575060015b919050565b6000546122d69082612434565b60009081556001600160a01b0383168152600160205260409020546122fb9082612434565b6001600160a01b03831660008181526001602090815260408083209490945583518581529351929391927fddf252ad1be2c89b69c2b068fc378daa952ba7f163c4a11628f55a4df523b3ef9281900390910190a35050565b60008183106123625781612364565b825b9392505050565b6001600160a01b03821660009081526001602052604090205461238e9082611e18565b6001600160a01b038316600090815260016020526040812091909155546123b59082611e18565b60009081556040805183815290516001600160a01b038516917fddf252ad1be2c89b69c2b068fc378daa952ba7f163c4a11628f55a4df523b3ef919081900360200190a35050565b6001600160701b0316600160701b0290565b60006001600160701b0382166001600160e01b0384168161242c57fe5b049392505050565b80820182811015610b75576040805162461bcd60e51b815260206004820152601460248201527364732d6d6174682d6164642d6f766572666c6f7760601b604482015290519081900360640190fdfe556e697377617056323a20494e53554646494349454e545f4f55545055545f414d4f554e54556e697377617056323a20494e53554646494349454e545f494e5055545f414d4f554e54556e697377617056323a20494e53554646494349454e545f4c4951554944495459556e697377617056323a20494e53554646494349454e545f4c49515549444954595f4255524e4544556e697377617056323a20494e53554646494349454e545f4c49515549444954595f4d494e544544a2646970667358221220402f3f80f181267b0e94a800ae2102bcf8100ba13a390825c63b13cd0fafaf9564736f6c634300060c0033a2646970667358221220c8335e37436206240654f20562750a19799228bded4b3c9134b3b4a9af91b45d64736f6c634300060c0033",
  "devdoc": {
    "kind": "dev",
    "methods": {},
    "version": 1
  },
  "userdoc": {
    "kind": "user",
    "methods": {},
    "version": 1
  },
  "storageLayout": {
    "storage": [
      {
        "astId": 1627,
        "contract": "contracts/UniswapV2Factory.sol:UniswapV2Factory",
        "label": "yieldDelegate",
        "offset": 0,
        "slot": "0",
        "type": "t_address"
      },
      {
        "astId": 1630,
        "contract": "contracts/UniswapV2Factory.sol:UniswapV2Factory",
        "label": "feeTo",
        "offset": 0,
        "slot": "1",
        "type": "t_address"
      },
      {
        "astId": 1633,
        "contract": "contracts/UniswapV2Factory.sol:UniswapV2Factory",
        "label": "feeToSetter",
        "offset": 0,
        "slot": "2",
        "type": "t_address"
      },
      {
        "astId": 1636,
        "contract": "contracts/UniswapV2Factory.sol:UniswapV2Factory",
        "label": "migrator",
        "offset": 0,
        "slot": "3",
        "type": "t_address"
      },
      {
        "astId": 1643,
        "contract": "contracts/UniswapV2Factory.sol:UniswapV2Factory",
        "label": "getPair",
        "offset": 0,
        "slot": "4",
        "type": "t_mapping(t_address,t_mapping(t_address,t_address))"
      },
      {
        "astId": 1647,
        "contract": "contracts/UniswapV2Factory.sol:UniswapV2Factory",
        "label": "allPairs",
        "offset": 0,
        "slot": "5",
        "type": "t_array(t_address)dyn_storage"
      }
    ],
    "types": {
      "t_address": {
        "encoding": "inplace",
        "label": "address",
        "numberOfBytes": "20"
      },
      "t_array(t_address)dyn_storage": {
        "base": "t_address",
        "encoding": "dynamic_array",
        "label": "address[]",
        "numberOfBytes": "32"
      },
      "t_mapping(t_address,t_address)": {
        "encoding": "mapping",
        "key": "t_address",
        "label": "mapping(address => address)",
        "numberOfBytes": "32",
        "value": "t_address"
      },
      "t_mapping(t_address,t_mapping(t_address,t_address))": {
        "encoding": "mapping",
        "key": "t_address",
        "label": "mapping(address => mapping(address => address))",
        "numberOfBytes": "32",
        "value": "t_mapping(t_address,t_address)"
      }
    }
  }
}